{
  "contractName": "Casino",
  "abi": [
    {
      "constant": true,
      "inputs": [],
      "name": "numberOfBets",
      "outputs": [
        {
          "name": "",
          "type": "uint256"
        }
      ],
      "payable": false,
      "stateMutability": "view",
      "type": "function"
    },
    {
      "constant": true,
      "inputs": [
        {
          "name": "",
          "type": "address"
        }
      ],
      "name": "playerInfo",
      "outputs": [
        {
          "name": "amountBet",
          "type": "uint256"
        },
        {
          "name": "numberSelected",
          "type": "uint256"
        }
      ],
      "payable": false,
      "stateMutability": "view",
      "type": "function"
    },
    {
      "constant": true,
      "inputs": [],
      "name": "owner",
      "outputs": [
        {
          "name": "",
          "type": "address"
        }
      ],
      "payable": false,
      "stateMutability": "view",
      "type": "function"
    },
    {
      "constant": true,
      "inputs": [],
      "name": "minimumBet",
      "outputs": [
        {
          "name": "",
          "type": "uint256"
        }
      ],
      "payable": false,
      "stateMutability": "view",
      "type": "function"
    },
    {
      "constant": true,
      "inputs": [],
      "name": "maxAmountOfBets",
      "outputs": [
        {
          "name": "",
          "type": "uint256"
        }
      ],
      "payable": false,
      "stateMutability": "view",
      "type": "function"
    },
    {
      "constant": true,
      "inputs": [
        {
          "name": "",
          "type": "uint256"
        }
      ],
      "name": "players",
      "outputs": [
        {
          "name": "",
          "type": "address"
        }
      ],
      "payable": false,
      "stateMutability": "view",
      "type": "function"
    },
    {
      "constant": true,
      "inputs": [],
      "name": "totalBet",
      "outputs": [
        {
          "name": "",
          "type": "uint256"
        }
      ],
      "payable": false,
      "stateMutability": "view",
      "type": "function"
    },
    {
      "inputs": [
        {
          "name": "_minimumBet",
          "type": "uint256"
        }
      ],
      "payable": false,
      "stateMutability": "nonpayable",
      "type": "constructor"
    },
    {
      "payable": true,
      "stateMutability": "payable",
      "type": "fallback"
    },
    {
      "constant": false,
      "inputs": [],
      "name": "getBalance",
      "outputs": [
        {
          "name": "",
          "type": "uint256"
        }
      ],
      "payable": false,
      "stateMutability": "nonpayable",
      "type": "function"
    },
    {
      "constant": false,
      "inputs": [],
      "name": "resetData",
      "outputs": [],
      "payable": false,
      "stateMutability": "nonpayable",
      "type": "function"
    },
    {
      "constant": true,
      "inputs": [
        {
          "name": "player",
          "type": "address"
        }
      ],
      "name": "checkPlayerExists",
      "outputs": [
        {
          "name": "",
          "type": "bool"
        }
      ],
      "payable": false,
      "stateMutability": "view",
      "type": "function"
    },
    {
      "constant": false,
      "inputs": [],
      "name": "kill",
      "outputs": [],
      "payable": false,
      "stateMutability": "nonpayable",
      "type": "function"
    },
    {
      "constant": false,
      "inputs": [
        {
          "name": "numberSelected",
          "type": "uint256"
        }
      ],
      "name": "bet",
      "outputs": [],
      "payable": true,
      "stateMutability": "payable",
      "type": "function"
    },
    {
      "constant": false,
      "inputs": [],
      "name": "generateNumberWinner",
      "outputs": [],
      "payable": false,
      "stateMutability": "nonpayable",
      "type": "function"
    },
    {
      "constant": false,
      "inputs": [
        {
          "name": "numberWinner",
          "type": "uint256"
        }
      ],
      "name": "distributePrizes",
      "outputs": [],
      "payable": false,
      "stateMutability": "nonpayable",
      "type": "function"
    }
  ],
  "bytecode": "0x60606040526064600455341561001457600080fd5b604051602080610ace83398101604052808051906020019091905050336000806101000a81548173ffffffffffffffffffffffffffffffffffffffff021916908373ffffffffffffffffffffffffffffffffffffffff16021790555060008114151561008257806001819055505b50610a3c806100926000396000f3006060604052600436106100d0576000357c0100000000000000000000000000000000000000000000000000000000900463ffffffff1680630a50e361146100d257806312065fe0146100e75780632ca8c6d3146101105780634081d9161461013957806341c0e1b51461018a578063478c4e0e1461019f5780634b114691146101b45780636ca3fc3b146102085780637365870b1461022b5780638da5cb5b14610243578063c38a8afd14610298578063e08a96cd146102c1578063f71d96cb146102ea578063fe5e18531461034d575b005b34156100dd57600080fd5b6100e5610376565b005b34156100f257600080fd5b6100fa610396565b6040518082815260200191505060405180910390f35b341561011b57600080fd5b6101236103b5565b6040518082815260200191505060405180910390f35b341561014457600080fd5b610170600480803573ffffffffffffffffffffffffffffffffffffffff169060200190919050506103bb565b604051808215151515815260200191505060405180910390f35b341561019557600080fd5b61019d61045f565b005b34156101aa57600080fd5b6101b26104f0565b005b34156101bf57600080fd5b6101eb600480803573ffffffffffffffffffffffffffffffffffffffff16906020019091905050610512565b604051808381526020018281526020019250505060405180910390f35b341561021357600080fd5b6102296004808035906020019091905050610536565b005b610241600480803590602001909190505061076f565b005b341561024e57600080fd5b6102566108de565b604051808273ffffffffffffffffffffffffffffffffffffffff1673ffffffffffffffffffffffffffffffffffffffff16815260200191505060405180910390f35b34156102a357600080fd5b6102ab610903565b6040518082815260200191505060405180910390f35b34156102cc57600080fd5b6102d4610909565b6040518082815260200191505060405180910390f35b34156102f557600080fd5b61030b600480803590602001909190505061090f565b604051808273ffffffffffffffffffffffffffffffffffffffff1673ffffffffffffffffffffffffffffffffffffffff16815260200191505060405180910390f35b341561035857600080fd5b61036061094e565b6040518082815260200191505060405180910390f35b60006001600a4381151561038657fe5b0601905061039381610536565b50565b60003073ffffffffffffffffffffffffffffffffffffffff1631905090565b60035481565b600080600090505b600580549050811015610454578273ffffffffffffffffffffffffffffffffffffffff166005828154811015156103f657fe5b906000526020600020900160009054906101000a900473ffffffffffffffffffffffffffffffffffffffff1673ffffffffffffffffffffffffffffffffffffffff1614156104475760019150610459565b80806001019150506103c3565b600091505b50919050565b6000809054906101000a900473ffffffffffffffffffffffffffffffffffffffff1673ffffffffffffffffffffffffffffffffffffffff163373ffffffffffffffffffffffffffffffffffffffff1614156104ee576000809054906101000a900473ffffffffffffffffffffffffffffffffffffffff1673ffffffffffffffffffffffffffffffffffffffff16ff5b565b60006005816104ff9190610954565b5060006002819055506000600381905550565b60066020528060005260406000206000915090508060000154908060010154905082565b61053e610980565b6000806000806000809450600093505b6005805490508410156106905760058481548110151561056a57fe5b906000526020600020900160009054906101000a900473ffffffffffffffffffffffffffffffffffffffff16925086600660008573ffffffffffffffffffffffffffffffffffffffff1673ffffffffffffffffffffffffffffffffffffffff168152602001908152602001600020600101541415610631578286866064811015156105f157fe5b602002019073ffffffffffffffffffffffffffffffffffffffff16908173ffffffffffffffffffffffffffffffffffffffff168152505084806001019550505b600660008473ffffffffffffffffffffffffffffffffffffffff1673ffffffffffffffffffffffffffffffffffffffff16815260200190815260200160002060008082016000905560018201600090555050838060010194505061054e565b600060058161069f9190610954565b5060646002548115156106ae57fe5b049150600090505b8481101561076657600073ffffffffffffffffffffffffffffffffffffffff1686826064811015156106e457fe5b602002015173ffffffffffffffffffffffffffffffffffffffff1614151561075957858160648110151561071457fe5b602002015173ffffffffffffffffffffffffffffffffffffffff166108fc839081150290604051600060405180830381858888f19350505050151561075857600080fd5b5b80806001019150506106b6565b50505050505050565b610778336103bb565b15151561078457600080fd5b600181101580156107965750600a8111155b15156107a157600080fd5b60015434101515156107b257600080fd5b34600660003373ffffffffffffffffffffffffffffffffffffffff1673ffffffffffffffffffffffffffffffffffffffff1681526020019081526020016000206000018190555080600660003373ffffffffffffffffffffffffffffffffffffffff1673ffffffffffffffffffffffffffffffffffffffff168152602001908152602001600020600101819055506003600081548092919060010191905055506005805480600101828161086691906109bf565b9160005260206000209001600033909190916101000a81548173ffffffffffffffffffffffffffffffffffffffff021916908373ffffffffffffffffffffffffffffffffffffffff16021790555050346002600082825401925050819055506004546003541015156108db576108da610376565b5b50565b6000809054906101000a900473ffffffffffffffffffffffffffffffffffffffff1681565b60015481565b60045481565b60058181548110151561091e57fe5b90600052602060002090016000915054906101000a900473ffffffffffffffffffffffffffffffffffffffff1681565b60025481565b81548183558181151161097b5781836000526020600020918201910161097a91906109eb565b5b505050565b610c80604051908101604052806064905b600073ffffffffffffffffffffffffffffffffffffffff168152602001906001900390816109915790505090565b8154818355818115116109e6578183600052602060002091820191016109e591906109eb565b5b505050565b610a0d91905b80821115610a095760008160009055506001016109f1565b5090565b905600a165627a7a72305820ad9779b5c1cfd0933a8420e5e9bb279390bd2ebee692a241eec9c480611c29970029",
  "source": "/**\n * The Casino contract does this and that...\n */\n\npragma solidity 0.4.19;\n\ncontract Casino {\n\n\taddress public owner;\n\tuint256 public minimumBet;\n\tuint256 public totalBet;\n\tuint256 public numberOfBets;\n\tuint256 public maxAmountOfBets = 100;\n\n\taddress [] public players;\n\n\tstruct Player {\n\t\tuint256 amountBet;\n\t\tuint256 numberSelected;\n\t}\n\t\n\tmapping (address => Player) public playerInfo;\t\n\n\t//Constuctor is executed only once during the deployment\n\tfunction Casino (uint256 _minimumBet) {\n\t\towner = msg.sender;\n\t\tif(_minimumBet!=0) {\n\t\t\tminimumBet = _minimumBet;\n\t\t}\n\t}\t\n\n\t//fallback function\n\tfunction() public payable {}\n\n\n\tfunction getBalance() public returns(uint) {\n\t\treturn this.balance;\n\t}\n\n\tfunction resetData(){\n\t   players.length = 0; // Delete all the players array\n\t   totalBet = 0; \n\t   numberOfBets = 0;\n\t}\n\t\n\t//I’m invoking a function called checkPlayerExists() to check that the user has not played\n\t// already because we only want that each person only plays once per game.\n\tfunction checkPlayerExists (address player) public constant returns(bool) {\n\t\tfor(uint256 i = 0; i < players.length; i++){\n\t\t\tif(players[i] == player) return true;\n\t\t}\n\t\treturn false;\n\t}\n\t\n\n\n\t/*\n\t\tThe function kill() is used to destroy the contract whenever you want.\n\t\tOf course only the owner can kill it. The remaining ether that the \n\t\tcontract has stored will be sent to the owner’s address. Only use it if\n\t\tthe contract is compromised by some hack and you can’t secure it.\n\n\t*/\n\tfunction kill () public {\n\t\tif(msg.sender == owner) {\n\t\t\tselfdestruct(owner);\n\t\t}\n\t}\n\n\tfunction bet (uint256 numberSelected) public payable{\n\t\trequire(!checkPlayerExists(msg.sender));\n\t\trequire(numberSelected >= 1 && numberSelected <= 10);\n\t\trequire(msg.value >= minimumBet);\n\n\t\tplayerInfo[msg.sender].amountBet = msg.value;\n\t\tplayerInfo[msg.sender].numberSelected = numberSelected;\n\n\t\tnumberOfBets++;\n\t\tplayers.push(msg.sender);\n\t\ttotalBet += msg.value;\n\n\t\tif(numberOfBets >= maxAmountOfBets) generateNumberWinner();\n\t}\n\t/*\n\t\tIt takes the current block number and gets the last number + 1 so if the block \n\t\tnumber is 128142 the number generated will be 128142 % 10 = 2 and 2 +1 = 3.\n\t\tThis isn’t secure because it’s easy to know what number will be the winner depending on the conditions.\n\t\tThe miners can decide see the block number for their own benefit.\n\t*/\n\tfunction generateNumberWinner () public{\n\t\tuint256 numberGenerated = block.number % 10 + 1; //This isn't secure at all\n\t\tdistributePrizes(numberGenerated);\t\n\t}\n\t\n\tfunction distributePrizes (uint256 numberWinner) public {\n\t\taddress[100] memory winners; // We have to create a temporary in memory array with fixed size\n\t\tuint256 count = 0; \n\n\n\t\tfor(uint256 i = 0; i < players.length; i++){\n\t\t\taddress playerAddress = players[i];\n\t\t\tif(playerInfo[playerAddress].numberSelected == numberWinner){\n\t\t\t\twinners[count] = playerAddress;\n\t\t\t\tcount++;\n\t\t\t}\n\t\t\tdelete playerInfo[playerAddress]; // Delete all the players\n\t\t}\n\n\t\tplayers.length = 0; //delete all the players in the array\n\n        uint256 winnerEtherAmount = totalBet / winners.length; // How much each winner gets\n\n        for(uint256 j = 0; j < count; j++){\n         \tif(winners[j] != address(0)){ // Check that the address in this fixed array is not empty\n         \t\twinners[j].transfer(winnerEtherAmount);\n         \t}\n        }\n    }\n\n\t\n\t\n\n\t\n}\n",
  "sourcePath": "/Users/nikolamadjarevic/Desktop/Ethereum/ethereum_casino/contracts/Casino.sol",
  "compiler": {
    "name": "solc",
    "version": "0.4.19+commit.c4cbbb05.Emscripten.clang"
  },
  "schemaVersion": "2.0.0",
  "updatedAt": "2018-03-05T18:38:30.688Z"
}